:100000000C9434000C9451000C9451000C94510049
:100010000C9451000C9451000C9451000C9451001C
:100020000C9451000C9451000C9451000C9451000C
:100030000C9451000C9451000C9451000C945100FC
:100040000C9451000C9451000C9409030C94510031
:100050000C9451000C9451000C9451000C945100DC
:100060000C9451000C94510011241FBECFEFD8E026
:10007000DEBFCDBF11E0A0E0B1E0E2EAF6E002C0F1
:1000800005900D92A830B107D9F711E0A8E0B1E0D2
:1000900001C01D92AA33B107E1F70E9453000C94EE
:1000A0004F030C940000CF93DF9360E076E980E08B
:1000B00090E00E94F200CCE2D1E080E091E00E946A
:1000C000BF0180E197E2FE013197F1F70197D9F77F
:1000D000F4CF089508959B01AC0160E673EE86E1CC
:1000E00090E00E942D032150304040405040E0EC11
:1000F000F0E0808182608083BB27A52F942F832F1F
:100100008093C5002093C4000895E1ECF0E0808165
:100110008860808386E08093C2000895E1ECF0E07F
:1001200080818061808386E08093C2000895E1EC45
:10013000F0E080818068808378940895982F809182
:10014000C00085FFFCCF9093C6000895DF93CF9346
:100150000F92CDB7DEB719828091C00084FF05C031
:100160008091C600898381E008C08091C00083FF30
:1001700007C08091C600898382E08093080105C092
:100180008091C60089831092080189810F90CF91D8
:10019000DF91089510920801E9E0F1E0119281E009
:1001A000E131F807D9F7108280E290E092A381A3B1
:1001B00014A213A220E004C0E85FFE4F12862F5F56
:1001C0008091320190913301E22FF0E0E817F907B6
:1001D00098F3109237011092360110923901109263
:1001E000380108950E946B00E1ECF0E080818860A6
:1001F0008083A2ECB0E096E09C9380818061808354
:100200009C93808180688083789408951F93CF9316
:10021000DF93AB01BC014F3F51056105710509F04A
:1002200028F4E8E0F0E0C2E0D0E011C0403080E027
:10023000580781E0680780E0780728F0E0E2F0E006
:10024000C8E0D0E004C0E0E1F0E0C4E0D0E080919C
:10025000C00085FFFCCF80E38093C6008091C00082
:1002600085FFFCCF88E78093C60010E01FC034975D
:10027000DB01CA010E2E04C0B695A7959795879508
:100280000A94D2F790E08F7090708A30910520F038
:100290009C01295C3F4F03C09C01205D3F4F809132
:1002A000C00085FFFCCF2093C6001F5F812F90E028
:1002B0008C179D07E0F2DF91CF911F910895CF92A7
:1002C000DF92EF92FF920F931F93CF93DF93AB01D7
:1002D000BC014F3F51056105710509F010F497E02D
:1002E0000BC0403080E0580781E0680780E0780765
:1002F00010F09FE101C09FE08091C00085FFFCCF1E
:1003000080E38093C6008091C00085FFFCCF82E629
:100310008093C60020E030E0E92FF0E000E311E335
:10032000EF012196CF01821B930B6A017B0104C070
:10033000F694E794D794C7948A95D2F7D701C6016B
:1003400081709070892B39F08091C00085FFFCCFBF
:100350001093C60006C08091C00085FFFCCF0093BB
:10036000C6002F5F3F4F2C173D07E1F6DF91CF917D
:100370001F910F91FF90EF90DF90CF900895AC0107
:1003800020E007C08091C00085FFFCCFE093C6004D
:100390002F5FFA01E20FF11DE081EE2399F7089536
:1003A000BF92CF92DF92EF92FF920F931F936B0158
:1003B0007C01611571058105910531F410920901E7
:1003C00081E08093110123C0BB240B2D10E0085F56
:1003D0001E4FC701B6012AE030E040E050E00E9425
:1003E0002D03F8016183C701B6012AE030E040E047
:1003F00050E00E942D03C901DA016C017D01B39424
:10040000C114D104E104F10401F7B09211011F916C
:100410000F91FF90EF90DF90CF90BF900895E09103
:1004200011010FC02E2F2150E22FF0E0E85FFE4FA8
:1004300091818091C00085FFFCCF905D9093C600B4
:10044000E22FEE2379F708959B01AC0197FF0EC0D0
:100450008091C00085FFFCCF8DE28093C60050954F
:100460004095309521953F4F4F4F5F4FCA01B901DD
:100470000E94D0010E940F020895FC01E85FFE4F28
:10048000828508952091340130913501C901089584
:100490002091380130913901C90108952091360128
:1004A00030913701C9010895E0913801F091390187
:1004B000E85FFE4F428580913801909139010196A5
:1004C000909339018093380120913801309139019E
:1004D00080913201909133012817390720F0109252
:1004E0003901109238018091360190913701892BA2
:1004F00049F080913601909137010197909337012F
:1005000080933601842F08951092080120E030E096
:1005100006C0F901E85FFE4F12862F5F3F4F8091C2
:100520003201909133012817390798F31092350161
:100530001092340110923901109238011092370153
:10054000109236010895DF93CF930F92CDB7DEB7A7
:1005500019820E94A600898380910801882309F0EE
:1005600054C0E0913401F09135018981E85FFE4F7C
:1005700082878091340190913501019690933501E5
:1005800080933401809136019091370101969093C8
:1005900037018093360120913601309137018091E7
:1005A0003201909133018217930700F58091320157
:1005B00090913301909337018093360180913801F7
:1005C00090913901019690933901809338012091DF
:1005D000380130913901809132019091330128170F
:1005E000390720F01092390110923801209134011E
:1005F00030913501809132019091330128173907EC
:1006000020F010923501109234010F90CF91DF91BC
:1006100008951F920F920FB60F9211242F933F93BC
:100620004F935F936F937F938F939F93AF93BF93FA
:10063000EF93FF930E94A302FF91EF91BF91AF91BF
:100640009F918F917F916F915F914F913F912F91EA
:100650000F900FBE0F901F901895A1E21A2EAA1BA3
:10066000BB1BFD010DC0AA1FBB1FEE1FFF1FA21762
:10067000B307E407F50720F0A21BB30BE40BF50B5F
:10068000661F771F881F991F1A9469F760957095E8
:10069000809590959B01AC01BD01CF010895F89420
:0206A000FFCF8A
:0806A20048656C6C6F0D0A0045
:00000001FF
