:100000000C9434000C9451000C9451000C94510049
:100010000C9451000C9451000C9451000C9451001C
:100020000C9451000C9451000C9451000C9451000C
:100030000C9451000C9451000C9451000C945100FC
:100040000C9407050C9451000C940D030C94510072
:100050000C9451000C9451000C9451000C945100DC
:100060000C9451000C94510011241FBECFEFD8E026
:10007000DEBFCDBF11E0A0E0B1E0EEE9FAE002C0E2
:1000800005900D92AE30B107D9F711E0AEE0B1E0C6
:1000900001C01D92A335B107E1F70E9453000C94F3
:1000A0004D050C940000CF93DF9384E690E00E940E
:1000B000C40460E076E980E090E00E94F600C0E3CE
:1000C000D5E70E9455040E94280280E091E00E943A
:1000D000C301CE010197F1F7F4CF089508959B0174
:1000E000AC0160E673EE86E190E00E942B052150A2
:1000F000304040405040E0ECF0E0808182608083FE
:10010000BB27A52F942F832F8093C5002093C40075
:100110000895E1ECF0E080818860808386E0809340
:10012000C2000895E1ECF0E080818061808386E088
:100130008093C2000895E1ECF0E0808180688083C4
:1001400078940895982F8091C00085FFFCCF9093FC
:10015000C6000895DF93CF930F92CDB7DEB7198213
:100160008091C00084FF05C08091C600898381E032
:1001700008C08091C00083FF07C08091C6008983BA
:1001800082E080930E0105C08091C60089831092A1
:100190000E0189810F90CF91DF91089510920E0189
:1001A000EFE0F1E0119281E0E731F807D9F7108232
:1001B00080E290E092A381A314A213A220E004C0E5
:1001C000E25FFE4F12862F5F8091380190913901D6
:1001D000E22FF0E0E817F90798F310923D01109232
:1001E0003C0110923F0110923E0108950E946F0061
:1001F000E1ECF0E0808188608083A2ECB0E096E0E2
:100200009C938081806180839C93808180688083BF
:10021000789408951F93CF93DF93AB01BC014F3FB8
:1002200051056105710509F028F4E8E0F0E0C2E04D
:10023000D0E011C0403080E0580781E0680780E0DE
:10024000780728F0E0E2F0E0C8E0D0E004C0E0E1A8
:10025000F0E0C4E0D0E08091C00085FFFCCF80E3F7
:100260008093C6008091C00085FFFCCF88E7809313
:10027000C60010E01FC03497DB01CA010E2E04C077
:10028000B695A795979587950A94D2F790E08F70C9
:1002900090708A30910520F09C01295C3F4F03C08B
:1002A0009C01205D3F4F8091C00085FFFCCF2093D3
:1002B000C6001F5F812F90E08C179D07E0F2DF9151
:1002C000CF911F910895CF92DF92EF92FF920F93FB
:1002D0001F93CF93DF93AB01BC014F3F51056105E5
:1002E000710509F010F497E00BC0403080E058072A
:1002F00081E0680780E0780710F09FE101C09FE08F
:100300008091C00085FFFCCF80E38093C600809180
:10031000C00085FFFCCF82E68093C60020E030E07D
:10032000E92FF0E000E311E3EF012196CF01821BFA
:10033000930B6A017B0104C0F694E794D794C794A9
:100340008A95D2F7D701C60181709070892B39F058
:100350008091C00085FFFCCF1093C60006C080913D
:10036000C00085FFFCCF0093C6002F5F3F4F2C17C6
:100370003D07E1F6DF91CF911F910F91FF90EF9034
:10038000DF90CF900895AC0120E007C08091C000BD
:1003900085FFFCCFE093C6002F5FFA01E20FF11D4D
:1003A000E081EE2399F70895BF92CF92DF92EF920A
:1003B000FF920F931F936B017C01611571058105FD
:1003C000910531F410920F0181E08093170123C051
:1003D000BB240B2D10E0025F1E4FC701B6012AE0BF
:1003E00030E040E050E00E942B05F8016183C70136
:1003F000B6012AE030E040E050E00E942B05C90140
:10040000DA016C017D01B394C114D104E104F1045B
:1004100001F7B09217011F910F91FF90EF90DF90BD
:10042000CF90BF900895E09117010FC02E2F21505B
:10043000E22FF0E0E25FFE4F91818091C00085FFE6
:10044000FCCF905D9093C600E22FEE2379F70895DC
:100450009B01AC0197FF0EC08091C00085FFFCCFCF
:100460008DE28093C60050954095309521953F4F81
:100470004F4F5F4FCA01B9010E94D4010E9413027D
:100480000895FC01E25FFE4F8285089520913A01B4
:1004900030913B01C901089520913E0130913F0107
:1004A000C901089520913C0130913D01C901089591
:1004B000E0913E01F0913F01E25FFE4F4285809165
:1004C0003E0190913F01019690933F0180933E0140
:1004D00020913E0130913F01809138019091390186
:1004E0002817390720F010923F0110923E018091A9
:1004F0003C0190913D01892B49F080913C01909104
:100500003D01019790933D0180933C01842F089514
:1005100010920E0120E030E006C0F901E25FFE4FCC
:1005200012862F5F3F4F8091380190913901281733
:10053000390798F310923B0110923A0110923F0153
:1005400010923E0110923D0110923C010895DF93FC
:10055000CF930F92CDB7DEB719820E94AA0089838C
:1005600080910E01882309F054C0E0913A01F09186
:100570003B018981E25FFE4F828780913A01909131
:100580003B01019690933B0180933A0180913C019D
:1005900090913D01019690933D0180933C01209103
:1005A0003C0130913D0180913801909139018217D1
:1005B000930700F5809138019091390190933D01A6
:1005C00080933C0180913E0190913F010196909370
:1005D0003F0180933E0120913E0130913F01809187
:1005E0003801909139012817390720F010923F0106
:1005F00010923E0120913A0130913B0180913801E7
:10060000909139012817390720F010923B01109280
:100610003A010F90CF91DF9108951F920F920FB67C
:100620000F9211242F933F934F935F936F937F9378
:100630008F939F93AF93BF93EF93FF930E94A70273
:10064000FF91EF91BF91AF919F918F917F916F91AA
:100650005F914F913F912F910F900FBE0F901F9080
:10066000189582E491E090934101809340011092AB
:100670004201809142018460809342018091420155
:1006800087708093420181E090E0909344018093D1
:1006900043011092450110924A0110924B011092B1
:1006A0004C0110924D0110924E0110924F01109288
:1006B0005001109251011092460110924701109280
:1006C0004801109249011092520108957F928F9231
:1006D0009F92AF92BF92CF92DF92EF92FF920F93D1
:1006E0001F93DF93CF93CDB7DEB72A970FB6F89459
:1006F000DEBF0FBECDBF8C01C0904001D090410144
:10070000F601808180FF31C00130110511F496E0BF
:1007100019C00230110511F495E014C00430110520
:1007200011F494E00FC00830110511F493E00AC0F1
:100730000031110511F492E005C090E0003211057E
:1007400009F491E0F89484B7877F84BF80916000BA
:100750008068809360008091600088618093600071
:10076000906490936000789467C081FD65C082FFBB
:1007700063C0DE011196E3E0F1E08AE001900D92A2
:100780008150E1F7980140E050E060E07BE187EBC9
:1007900090E00E942B05722E832E942EE52E5E0192
:1007A0000894A11CB11CC901DA019C01AD01FF2410
:1007B00014C0F501219131915F0140E050E0672DB7
:1007C000782D892D9E2D0E942B05C901DA019C01EF
:1007D000AD01F394F5E0FF1631F02F3F31054105EF
:1007E000510509F030F78F2D815014BC15BC1092C3
:1007F0006E0015BA17BC18BC16BC17BC882311F4C0
:1008000081E00FC0813011F482E00BC0823011F41E
:1008100083E007C0833011F484E003C0843011F416
:1008200085E085BD822F8095F6018383838186BD17
:1008300081E080936E007894F601128301832A96FA
:100840000FB6F894DEBF0FBECDBFCF91DF911F91E1
:100850000F91FF90EF90DF90CF90BF90AF909F905F
:100860008F907F900895E0914001F091410180893F
:100870000895E0914001F091410180898F3318F48F
:1008800080898F5F808B0895E0914001F091410154
:100890008089882319F080898150808B0895E091A8
:1008A0004001F0914101108A0895E0914001F091DA
:1008B00041012085318542855385B901CA010895DA
:1008C000E0914001F09141012485358546855785A9
:1008D000B901CA010895E0914001F091410160879A
:1008E0007187828793870895E0914001F0914101DB
:1008F000648775878687978708959C01E0914001FA
:10090000F091410180898F3318F480898F5F808B4B
:1009100080859185A285B38540E050E0280F391F7E
:100920004A1F5B1F80859185A285B3858217930737
:10093000A407B507B8F38089882319F0808981500E
:10094000808B0895EF92FF920F931F93E0914001E7
:10095000F091410124853585468557857C0100E06D
:1009600010E0E20EF31E041F151F80859185A285FD
:10097000B3858E159F05A007B107B8F31F910F919E
:10098000FF90EF90089508950F931F938C010E949C
:100990003103C8010E9466031F910F9108950895C5
:1009A000CF93DF93C0914001D09141018885998513
:1009B000AA85BB850196A11DB11D88879987AA8745
:1009C000BB878B8186BD688579858A859B852981D2
:1009D0003A8140E050E00E942B05611571058105C8
:1009E000910591F48C859D85AE85BF850196A11DED
:1009F000B11D8C879D87AE87BF878889882321F4A6
:100A0000188619861A861B86DF91CF9108951F924A
:100A10000F920FB60F9211242F933F934F935F9332
:100A20006F937F938F939F93AF93BF93EF93FF93B6
:100A30000E94D004FF91EF91BF91AF919F918F9150
:100A40007F916F915F914F913F912F910F900FBECA
:100A50000F901F901895A1E21A2EAA1BBB1BFD0137
:100A60000DC0AA1FBB1FEE1FFF1FA217B307E4078D
:100A7000F50720F0A21BB30BE40BF50B661F771FE5
:100A8000881F991F1A9469F76095709580959095C5
:0E0A90009B01AC01BD01CF010895F894FFCF8A
:0E0A9E000D0A000100080040000001000400E5
:00000001FF
