:100000000C9434000C9451000C9451000C94510049
:100010000C9451000C9451000C9451000C9451001C
:100020000C9451000C9451000C9451000C9451000C
:100030000C9451000C9451000C9451000C945100FC
:100040000C9451050C9451000C9457030C945100DE
:100050000C9451000C9451000C9451000C945100DC
:100060000C9451000C94510011241FBECFEFD8E026
:10007000DEBFCDBF11E0A0E0B1E0E4E1F0E102C0FD
:1000800005900D92A031B107D9F711E0A0E1B1E0E0
:1000900001C01D92A837B107E1F70E9453000C94EC
:1000A00008080C940000AF92BF92CF92DF92EF92BB
:1000B000FF920F931F93CF93DF9384E690E00E940B
:1000C0000E0560E076E980E090E00E943D010E942C
:1000D00017060E948907C0E0D0E090E6A92E9AEEAC
:1000E000B92E88E9C82E8AE3D82E0E9411018F36D6
:1000F00039F4C450D14020F484EF91E00E944607C7
:10010000C5010197F1F70E9484067C010E946907EE
:10011000C6010197F1F780E50E944006EC010E94BC
:10012000C20690E0A0E0B0E0BC01CD010E946F02E9
:1001300080E091E00E940A0200E010E0C801B701EF
:100140000E946F0280E091E00E940A02BE0180E0FE
:1001500090E00E946F0282E091E00E940A02C5CF07
:10016000089508959B01AC0160E673EE86E190E08E
:100170000E94CB072150304040405040E0ECF0E07E
:10018000808182608083BB27A52F942F832F80934B
:10019000C5002093C4000895E1ECF0E08081886000
:1001A000808386E08093C2000895E1ECF0E08081D6
:1001B0008061808386E08093C2000895E1ECF0E0E6
:1001C00080818068808378940895982F8091C00002
:1001D00085FFFCCF9093C6000895DF93CF930F92D5
:1001E000CDB7DEB719828091C00084FF05C0809131
:1001F000C600898381E008C08091C00083FF07C0EA
:100200008091C600898382E08093100105C08091AF
:10021000C60089831092100189810F90CF91DF91E0
:10022000089580911A01089510921001E1E1F1E022
:10023000119281E0E931F807D9F71082118280E24A
:1002400090E093A382A315A214A220E004C0E05F73
:10025000FE4F13862F5F80913B0190913C01E22F6E
:10026000F0E0E817F90798F31092400110923F016F
:10027000109242011092410108950E94B200E1ECF7
:10028000F0E0808188608083A2ECB0E096E09C93EF
:100290008081806180839C93808180688083789452
:1002A00008951F93CF93DF93AB01BC014F3F5105DE
:1002B0006105710509F028F4E8E0F0E0C2E0D0E063
:1002C00011C0403080E0580781E0680780E078077F
:1002D00028F0E0E2F0E0C8E0D0E004C0E0E1F0E0C7
:1002E000C4E0D0E08091C00085FFFCCF80E3809324
:1002F000C6008091C00085FFFCCF88E78093C600D0
:1003000010E01FC03497DB01CA010E2E04C0B69561
:10031000A795979587950A94D2F790E08F70907083
:100320008A30910520F09C01295C3F4F03C09C015D
:10033000205D3F4F8091C00085FFFCCF2093C60019
:100340001F5F812F90E08C179D07E0F2DF91CF9126
:100350001F910895CF92DF92EF92FF920F931F9318
:10036000CF93DF93AB01BC014F3F51056105710590
:1003700009F010F497E00BC0403080E0580781E0AE
:10038000680780E0780710F09FE101C09FE080914E
:10039000C00085FFFCCF80E38093C6008091C00041
:1003A00085FFFCCF82E68093C60020E030E0E92F95
:1003B000F0E000E311E3EF012196CF01821B930BE4
:1003C0006A017B0104C0F694E794D794C7948A9598
:1003D000D2F7D701C60181709070892B39F08091D6
:1003E000C00085FFFCCF1093C60006C08091C000FE
:1003F00085FFFCCF0093C6002F5F3F4F2C173D07B2
:10040000E1F6DF91CF911F910F91FF90EF90DF9078
:10041000CF900895AC0120E007C08091C00085FF17
:10042000FCCFE093C6002F5FFA01E20FF11DE081DF
:10043000EE2399F70895BF92CF92DF92EF92FF9249
:100440000F931F936B017C01611571058105910567
:1004500031F41092110181E08093190123C0BB2473
:100460000B2D10E0005F1E4FC701B6012AE030E0FF
:1004700040E050E00E94CB07F8016183C701B6015C
:100480002AE030E040E050E00E94CB07C901DA01E9
:100490006C017D01B394C114D104E104F10401F7AE
:1004A000B09219011F910F91FF90EF90DF90CF90C4
:1004B000BF900895E09119010FC02E2F2150E22F17
:1004C000F0E0E05FFE4F91818091C00085FFFCCF9E
:1004D000905D9093C600E22FEE2379F708959B017B
:1004E000AC0197FF0EC08091C00085FFFCCF8DE26C
:1004F0008093C60050954095309521953F4F4F4FC2
:100500005F4FCA01B9010E941B020E945A0208955E
:10051000FC01E05FFE4F8385089520913D013091FD
:100520003E01C90108952091410130914201C90164
:10053000089520913F0130914001C9010895E09153
:100540004101F0914201E05FFE4F438580914101FE
:100550009091420101969093420180934101209134
:1005600041013091420180913B0190913C0128175B
:10057000390720F0109242011092410180913F0111
:1005800090914001892B49F080913F019091400169
:1005900001979093400180933F01842F089510921A
:1005A000100120E030E006C0F901E05FFE4F138645
:1005B0002F5F3F4F80913B0190913C0128173907F5
:1005C00098F310923E0110923D0110924201109258
:1005D00041011092400110923F010895DF93CF93A3
:1005E0000F92CDB7DEB719820E94ED00898380910A
:1005F0001001882309F057C0898180931A01E09186
:100600003D01F0913E018981E05FFE4F838780913B
:100610003D0190913E01019690933E0180933D01F2
:1006200080913F0190914001019690934001809309
:100630003F0120913F013091400180913B01909119
:100640003C018217930700F580913B0190913C019A
:100650009093400180933F0180914101909142012C
:100660000196909342018093410120914101309184
:10067000420180913B0190913C012817390720F0FD
:10068000109242011092410120913D0130913E01B2
:1006900080913B0190913C012817390720F010927E
:1006A0003E0110923D010F90CF91DF9108951F926E
:1006B0000F920FB60F9211242F933F934F935F9396
:1006C0006F937F938F939F93AF93BF93EF93FF931A
:1006D0000E94EE02FF91EF91BF91AF919F918F9198
:1006E0007F916F915F914F913F912F910F900FBE2E
:1006F0000F901F90189585E491E0909344018093AA
:100700004301109245018091450184608093450129
:100710008091450187708093450181E090E090933E
:100720004701809346011092480110924D011092AA
:100730004E0110924F0110925001109251011092EF
:1007400052011092530110925401109249011092DB
:100750004A0110924B0110924C01109255010895DC
:100760007F928F929F92AF92BF92CF92DF92EF9241
:10077000FF920F931F93DF93CF93CDB7DEB72A97E6
:100780000FB6F894DEBF0FBECDBF8C01C090430101
:10079000D0904401F601808180FF31C00130110505
:1007A00011F496E019C00230110511F495E014C05F
:1007B0000430110511F494E00FC00830110511F454
:1007C00093E00AC00031110511F492E005C090E0F9
:1007D0000032110509F491E0F89484B7877F84BF53
:1007E00080916000806880936000809160008861E3
:1007F00080936000906490936000789467C081FD5E
:1008000065C082FF63C0DE011196E5E0F1E08AE099
:1008100001900D928150E1F7980140E050E060E0D6
:100820007BE187EB90E00E94CB07722E832E942E03
:10083000E52E5E010894A11CB11CC901DA019C01DE
:10084000AD01FF2414C0F501219131915F0140E019
:1008500050E0672D782D892D9E2D0E94CB07C90170
:10086000DA019C01AD01F394F5E0FF1631F02F3F62
:1008700031054105510509F030F78F2D815014BC29
:1008800015BC10926E0015BA17BC18BC16BC17BC6C
:10089000882311F481E00FC0813011F482E00BC095
:1008A000823011F483E007C0833011F484E003C088
:1008B000843011F485E085BD822F8095F601838315
:1008C000838186BD81E080936E007894F601128367
:1008D00001832A960FB6F894DEBF0FBECDBFCF912D
:1008E000DF911F910F91FF90EF90DF90CF90BF901D
:1008F000AF909F908F907F900895E0914301F09189
:10090000440180890895E0914301F0914401808978
:100910008F3318F480898F5F808B0895E0914301B5
:10092000F09144018089882319F080898150808B5F
:100930000895E0914301F0914401108A0895E091F7
:100940004301F09144012085318542855385B901E9
:10095000CA010895E0914301F09144012485358551
:1009600046855785B901CA010895E0914301F09188
:10097000440160877187828793870895E0914301DE
:10098000F0914401648775878687978708959C0155
:10099000E0914301F091440180898F3318F48089FC
:1009A0008F5F808B80859185A285B38540E050E084
:1009B000280F391F4A1F5B1F80859185A285B3854B
:1009C00082179307A407B507B8F38089882319F025
:1009D00080898150808B0895EF92FF920F931F932F
:1009E000E0914301F0914401248535854685578582
:1009F0007C0100E010E0E20EF31E041F151F80854D
:100A00009185A285B3858E159F05A007B107B8F320
:100A10001F910F91FF90EF90089508950F931F93EA
:100A20008C010E947B03C8010E94B0031F910F91AB
:100A300008950895CF93DF93C0914301D09144016D
:100A400088859985AA85BB850196A11DB11D8887DA
:100A50009987AA87BB878B8186BD688579858A85BA
:100A60009B8529813A8140E050E00E94CB076115C7
:100A700071058105910591F48C859D85AE85BF85B5
:100A80000196A11DB11D8C879D87AE87BF87888980
:100A9000882321F4188619861A861B86DF91CF9148
:100AA00008951F920F920FB60F9211242F933F9328
:100AB0004F935F936F937F938F939F93AF93BF9366
:100AC000EF93FF930E941A05FF91EF91BF91AF91B1
:100AD0009F918F917F916F915F914F913F912F9156
:100AE0000F900FBE0F901F90189510925701109203
:100AF00058011092590110925A0110925B01109204
:100B00005C0110925D0110925E01109260011092E2
:100B100061011092620110926301109264011092BF
:100B2000650110926601109267011092690110929E
:100B30006A0110926B0110926C0110926D0110927B
:100B40006E0110926F01109270018CE38093560138
:100B50008EE180935F0186E48093680108952F926F
:100B60003F924F925F926F927F928F929F92AF923D
:100B7000BF92CF92DF92EF92FF920F931F931A01D1
:100B80002B0190E04C0133E0880C991C3A95E1F779
:100B9000880E991E86E591E0880E991EF401418326
:100BA000528363837483A08064E670E06A197109DC
:100BB000882777FD8095982F25E0622E712C680C90
:100BC000791C25813681478150850E94AC077B01C5
:100BD0008C01BB24CC24DD24C201B101A601950106
:100BE0000E94AC07E60EF71E081F191FC801B701C7
:100BF00024E630E040E050E00E94ED07CA01F40135
:100C00002583F301318342839383B9011F910F91AF
:100C1000FF90EF90DF90CF90BF90AF909F908F901C
:100C20007F906F905F904F903F902F90089580EC51
:100C300080937C00EAE7F0E086E080838081806832
:100C400080830E9475050895982F906C80917C0098
:100C5000891711F090937C0080917A0080648093D2
:100C60007A0080917A0084FFFCCF80917A008061C5
:100C700080937A002091780030917900C90108951D
:100C8000DF92EF92FF920F931F93CF93DF93D82EB3
:100C900010E080E00E9424061F5F1430D1F7EE249C
:100CA000FF248701C0E0D0E080E00E942406A0E09D
:100CB000B0E0E80EF91E0A1F1B1F2196C034D105B3
:100CC00099F746E016950795F794E7944A95D1F77A
:100CD0002D2D30E040E050E0C801B7010E94AC0784
:100CE00024E630E040E050E00E94CB0780E0BA010B
:100CF000A9010E94AF05CB01DF91CF911F910F9108
:100D0000FF90EF90DF900895DF92EF92FF920F93A4
:100D10001F9310E081E00E9424061F5F1430D1F77A
:100D2000EE24FF248701DD2481E00E942406A0E058
:100D3000B0E0E80EF91E0A1F1B1FD39480E1D816FD
:100D400099F754E016950795F794E7945A95D1F7DB
:100D5000C801B70128EE33E040E050E00E94AC0744
:100D600022E330E040E050E00E94CB0781E0BA018E
:100D7000A9010E94AF05CB011F910F91FF90EF9049
:100D8000DF900895DF92EF92FF920F931F9310E090
:100D900082E00E9424061F5F1430D1F7EE24FF2466
:100DA0008701DD2482E00E942406A0E0B0E0E80E86
:100DB000F91E0A1F1B1FD39480E1D81699F7F4E09F
:100DC00016950795F794E794FA95D1F7C801B701FE
:100DD00026E534E040E050E00E94AC07EAE096955A
:100DE000879577956795EA95D1F722E830E040E05E
:100DF00050E00E94AC0728EE33E040E050E00E9453
:100E0000CB0782E0BA01A9010E94AF05862F1F918E
:100E10000F91FF90EF90DF900895EF92FF920F9364
:100E20001F93E82E0E948406FF2400E010E09C013E
:100E300040E050E0C801B7010E94AC0728EE33E063
:100E400040E050E00E94CB07C9011F910F91FF9035
:100E5000EF900895EF92FF920F931F9324E630E0F6
:100E6000629F7001639FF00C729FF00C112400E0F0
:100E700010E09C0140E050E0C801B7010E94CB07A0
:100E8000822F1F910F91FF90EF9008959C01809108
:100E900071018823E9F421153105D1F030937701F0
:100EA0002093760182E02835380710F027E532E0FC
:100EB000309389002093880080918000806880931F
:100EC0008000309375012093740181E0809371015B
:100ED000089580917101813089F481E090E09093D0
:100EE000890080938800109275011092740110920D
:100EF0007101809180008F778093800008958091A8
:100F00007601909177010895809174019091750117
:100F10000895219A2998E0E8F0E082E8808389E149
:100F20008093810028E532E030938700209386008B
:100F300081E090E0909389008093880080818F7792
:100F40008083309373012093720110927701109285
:100F500076010E9469070895629FD001739FF00196
:100F6000829FE00DF11D649FE00DF11D929FF00D39
:100F7000839FF00D749FF00D659FF00D9927729F70
:100F8000B00DE11DF91F639FB00DE11DF91FBD01FB
:100F9000CF0111240895A1E21A2EAA1BBB1BFD014B
:100FA0000DC0AA1FBB1FEE1FFF1FA217B307E40748
:100FB000F50720F0A21BB30BE40BF50B661F771FA0
:100FC000881F991F1A9469F7609570958095909580
:100FD0009B01AC01BD01CF01089597FB092E0526A9
:100FE0000ED057FD04D0D7DF0AD0001C38F450953E
:100FF0004095309521953F4F4F4F5F4F0895F6F73D
:1010000090958095709561957F4F8F4F9F4F089574
:04101000F894FFCF82
:101014002C000D0A0001000800400000010004003B
:00000001FF
