:100000000C9434000C9451000C9451000C94510049
:100010000C9451000C9451000C9451000C9451001C
:100020000C9451000C9451000C9451000C9451000C
:100030000C9451000C9451000C9451000C945100FC
:100040000C94650C0C9451000C94A9020C94510072
:100050000C9451000C9451000C9451000C945100DC
:100060000C9451000C94510011241FBECFEFD8E026
:10007000DEBFCDBF11E0A0E0B1E0EEE2F9E202C0E8
:1000800005900D92A231B107D9F712E0A2E1B1E0DB
:1000900001C01D92AB31B107E1F70E9453000C94EF
:1000A00095140C9400000F931F93CF93DF9382E37A
:1000B00090E00E941C0C0E94EB0F0E94240F0E94F3
:1000C0001E130E941E1482E090E00E94B80484E097
:1000D00090E00E94AD0F08E91AE3C8E2D3E285E0A0
:1000E00090E00E94B8040E94920FC8010197F1F7B6
:1000F0000E94E30E8AEF90E00E94730FCE010197F9
:10010000F1F70E94E8130E9433130E944D130E94DE
:10011000DC01E5CF10921201E3E1F1E0119281E000
:10012000EB31F807D9F71082118280E290E093A3B7
:1001300082A315A214A220E004C0EE5EFE4F138637
:100140002F5F80913D0190913E01E22FF0E0E81792
:10015000F90798F30895089508959B01AC0160E6AE
:1001600073EE86E190E00E945814215030404040E8
:100170005040E0ECF0E0808182608083BB27A52FB7
:10018000942F832F8093C5002093C4000895E1EC41
:10019000F0E080818860808386E08093C2000895CB
:1001A000E1ECF0E080818061808386E08093C20092
:1001B0000895E1ECF0E08081806880837894089570
:1001C000982F8091C00085FFFCCF9093C6000895C2
:1001D000DF93CF930F92CDB7DEB719828091C00025
:1001E00084FF05C08091C600898381E008C08091AA
:1001F000C00083FF07C08091C600898382E080939E
:10020000120105C08091C600898310921201898174
:100210000F90CF91DF91089580911C010895109265
:100220001C0108951F93CF93DF93AB01BC014F3F97
:1002300051056105710509F028F4E8E0F0E0C2E03D
:10024000D0E011C0403080E0580781E0680780E0CE
:10025000780728F0E0E2F0E0C8E0D0E004C0E0E198
:10026000F0E0C4E0D0E08091C00085FFFCCF80E3E7
:100270008093C6008091C00085FFFCCF88E7809303
:10028000C60010E01FC03497DB01CA010E2E04C067
:10029000B695A795979587950A94D2F790E08F70B9
:1002A00090708A30910520F09C01295C3F4F03C07B
:1002B0009C01205D3F4F8091C00085FFFCCF2093C3
:1002C000C6001F5F812F90E08C179D07E0F2DF9141
:1002D000CF911F910895CF92DF92EF92FF920F93EB
:1002E0001F93CF93DF93AB01BC014F3F51056105D5
:1002F000710509F010F497E00BC0403080E058071A
:1003000081E0680780E0780710F09FE101C09FE07E
:100310008091C00085FFFCCF80E38093C600809170
:10032000C00085FFFCCF82E68093C60020E030E06D
:10033000E92FF0E000E311E3EF012196CF01821BEA
:10034000930B6A017B0104C0F694E794D794C79499
:100350008A95D2F7D701C60181709070892B39F048
:100360008091C00085FFFCCF1093C60006C080912D
:10037000C00085FFFCCF0093C6002F5F3F4F2C17B6
:100380003D07E1F6DF91CF911F910F91FF90EF9024
:10039000DF90CF900895AC0120E007C08091C000AD
:1003A00085FFFCCFE093C6002F5FFA01E20FF11D3D
:1003B000E081EE2399F7089580E091E00E94CB015F
:1003C000089583E091E00E94CB010895BF92CF92FF
:1003D000DF92EF92FF920F931F936B017C016115E7
:1003E00071058105910531F41092130181E080932C
:1003F0001B0123C0BB240B2D10E00E5E1E4FC70156
:10040000B6012AE030E040E050E00E945814F801C4
:100410006183C701B6012AE030E040E050E00E946D
:100420005814C901DA016C017D01B394C114D104DF
:10043000E104F10401F7B0921B011F910F91FF90AD
:10044000EF90DF90CF90BF900895E0911B010FC017
:100450002E2F2150E22FF0E0EE5EFE4F9181809131
:10046000C00085FFFCCF905D9093C600E22FEE2385
:1004700079F708959B01AC0197FF0EC08091C000F1
:1004800085FFFCCF8DE28093C60050954095309556
:1004900021953F4F4F4F5F4FCA01B9010E94E601BE
:1004A0000E9425020895FC01EE5EFE4F83850895AB
:1004B00020913F0130914001C9010895109212012D
:1004C00020E030E006C0F901EE5EFE4F13862F5F9C
:1004D0003F4F80913D0190913E012817390798F3D5
:1004E0001092400110923F010895DF93CF930F9235
:1004F000CDB7DEB719820E94E8008983809112018E
:10050000882319F5898180931C01E0913F01F091C6
:1005100040018981EE5EFE4F838780913F0190917B
:10052000400101969093400180933F0120913F014B
:100530003091400180913D0190913E01281739078B
:1005400020F01092400110923F010F90CF91DF9167
:1005500008951F920F920FB60F9211242F933F937D
:100560004F935F936F937F938F939F93AF93BF93BB
:10057000EF93FF930E947502FF91EF91BF91AF91AE
:100580009F918F917F916F915F914F913F912F91AB
:100590000F900FBE0F901F901895EF92FF920F9340
:1005A0001F937B018C010E948A00C801B7010E9441
:1005B000AD00E1ECF0E0808188608083A2ECB0E0E7
:1005C00096E09C938081806180839C938081806889
:1005D000808378940E945E021F910F91FF90EF90AC
:1005E000089583E491E09093420180934101109239
:1005F00043018091430184608093430180914301D2
:1006000087708093430181E090E09093450180934F
:1006100044011092460110924B0110924C0110922D
:100620004D0110924E0110924F0110925001109204
:1006300051011092520110924701109248011092FC
:10064000490110924A0110925301109254011092E4
:1006500055011092560110925701109258011092B4
:10066000590110925A0110925B0110925C01109294
:100670005D0110925E0110925F0110926001109274
:100680006101109262011092630110926401109254
:100690006501109266011092670110926801109234
:1006A000690110926A0110926B0110926C01109214
:1006B0006D0110926E0110926F01109270011092F4
:1006C00071011092720110927301109274011092D4
:1006D00075011092760110927701109278011092B4
:1006E000790110927A0110927B0110927C01109294
:1006F0007D0110927E0108957F928F929F92AF921A
:10070000BF92CF92DF92EF92FF920F931F93DF93EE
:10071000CF93CDB7DEB72A970FB6F894DEBF0FBEE2
:10072000CDBF8C01C0904101D0904201F601808183
:1007300080FF31C00130110511F496E019C002307C
:10074000110511F495E014C00430110511F494E082
:100750000FC00830110511F493E00AC000311105F3
:1007600011F492E005C090E00032110509F491E027
:10077000F89484B7877F84BF8091600080688093FD
:100780006000809160008861809360009064909325
:100790006000789467C081FD65C082FF63C0DE01A0
:1007A0001196E5E0F1E08AE001900D928150E1F7C9
:1007B000980140E050E060E07BE187EB90E00E9430
:1007C0005814722E832E942EE52E5E010894A11CDF
:1007D000B11CC901DA019C01AD01FF2414C0F5016F
:1007E000219131915F0140E050E0672D782D892DF6
:1007F0009E2D0E945814C901DA019C01AD01F394A9
:10080000F5E0FF1631F02F3F31054105510509F0A4
:1008100030F78F2D815014BC15BC10926E0015BAA4
:1008200017BC18BC16BC17BC882311F481E00FC09C
:10083000813011F482E00BC0823011F483E007C0F4
:10084000833011F484E003C0843011F485E085BD69
:10085000822F8095F6018383838186BD81E080931A
:100860006E007894F601128301832A960FB6F894ED
:10087000DEBF0FBECDBFCF91DF911F910F91FF90D3
:10088000EF90DF90CF90BF90AF909F908F907F9030
:100890000895E0914101F0914201818D0895E09128
:1008A0004101F0914201818D8F3318F4818D8F5F6A
:1008B000818F0895E0914101F0914201818D88235B
:1008C00019F0818D8150818F0895E0914101F0915F
:1008D0004201118E0895E0914101F091420120857D
:1008E000318542855385B901CA010895E0914101DE
:1008F000F09142012485358546855785B901CA01A5
:100900000895E0914101F0914201608771878287EB
:1009100093870895E0914101F091420164877587C2
:100920008687978708959C01E0914101F0914201EB
:10093000818D8F3318F4818D8F5F818F80859185B4
:10094000A285B38540E050E0280F391F4A1F5B1F86
:1009500080859185A285B38582179307A407B50783
:10096000B8F3818D882319F0818D8150818F08958E
:10097000BC01E0914101F091420120853185428521
:10098000538584819581A681B781281739074A0745
:100990005B0799F72085318542855385CB01A0E01F
:1009A000B0E0820F931FA41FB51F84839583A68395
:1009B000B783248135814681578181819281A0E06E
:1009C000B0E0281739074A075B0780F0248135819A
:1009D0004681578181819281A0E0B0E0281B390BCC
:1009E0004A0B5B0B24833583468357830895EF922C
:1009F000FF920F931F93E0914101F09142012485F2
:100A00003585468557857C0100E010E0E20EF31E37
:100A1000041F151F80859185A285B3858E159F05BE
:100A2000A007B107B8F31F910F91FF90EF900895C1
:100A3000E0914101F0914201108A118A128A138AD1
:100A4000148A158A168A178A108E0895E09141013A
:100A5000F0914201808D882391F484859585A68547
:100A6000B785808B918BA28BB38B80859185A28576
:100A7000B385848B958BA68BB78B81E0808F08958F
:100A8000EF92FF920F931F93CF93DF93C091410199
:100A9000D0914201888D882321F4EE24FF24870120
:100AA00022C02C853D854E855F85E884F9840A85C2
:100AB0001B8588899989AA89BB89281B390B4A0B10
:100AC0005B0B69817A8180E090E00E9425142C897B
:100AD0003D894E895F89E21AF30A040B150BE60E75
:100AE000F71E081F191FB701C801DF91CF911F9191
:100AF0000F91FF90EF9008950E944005282FE091FC
:100B00004101F0914201808D882349F0108A118AB9
:100B1000128A138A148A158A168A178A108E822FCF
:100B20000895E0914101F091420190E025E130E02B
:100B3000AC01429FC001439F900D529F900D112424
:100B4000E80FF91F828D86958F700895E09141011D
:100B5000F091420190E025E130E0AC01429FC001FC
:100B6000439F900D529F900D1124E80FF91F6F7055
:100B7000660F828D817E862B828F0895E0914101E0
:100B8000F091420190E025E130E0AC01429FC001CC
:100B9000439F900D529F900D1124E80FF91FDF0124
:100BA000979667A111967C91119712968C91129746
:100BB00013969C910895E0914101F091420190E0DB
:100BC00025E130E0DC01A29FC001A39F900DB29F00
:100BD000900D1124E80FF91F47A350A761A772A732
:100BE0000895E0914101F091420190E025E130E06B
:100BF000AC01429FC001439F900D529F900D112464
:100C0000E80FF91FDF015B96638D11967C911197B8
:100C100012968C91129713969C910895E091410140
:100C2000F091420190E025E130E0DC01A29FC0019B
:100C3000A39F900DB29F900D1124E80FF91F438FD1
:100C4000548F658F768F0895E0914101F0914201B4
:100C500090E025E130E0AC01429FC001439F900D40
:100C6000529F900D1124E80FF91FDF015F96678DE9
:100C700011967C91119712968C91129713969C91D4
:100C80000895E0914101F091420190E025E130E0CA
:100C9000DC01A29FC001A39F900DB29F900D112473
:100CA000E80FF91F478F50A361A372A30895E09145
:100CB0004101F091420190E025E130E0AC01429F1A
:100CC000C001439F900D529F900D1124E80FF91F12
:100CD000DF01939663A111967C91119712968C91E6
:100CE000129713969C910895E0914101F091420171
:100CF00090E025E130E0DC01A29FC001A39F900DB0
:100D0000B29F900D1124E80FF91F43A354A365A3CC
:100D100076A30895E0914101F091420190E025E130
:100D200030E0AC01429FC001439F900D529F900D57
:100D30001124E80FF91FDF019B9663A511967C91A2
:100D4000119712968C91129713969C910895E091A9
:100D50004101F091420190E025E130E0DC01A29FE9
:100D6000C001A39F900DB29F900D1124E80FF91FB1
:100D700043A754A765A776A70895E0914101F09194
:100D8000420190E025E130E0AC01429FC001439F69
:100D9000900D529F900D1124E80FF91F828D8170E4
:100DA0000895E0914101F091420190E025E130E0A9
:100DB000AC01429FC001439F900D529F900D1124A2
:100DC000E80FF91F828D8160828F0895E0914101C3
:100DD000F091420190E025E130E0AC01429FC0017A
:100DE000439F900D529F900D1124E80FF91F828DA3
:100DF0008E7F828F0895E0914101F091420190E051
:100E000025E130E0AC01429FC001439F900D529F0D
:100E1000900D1124E80FF91F828D17A210A611A6BC
:100E200012A6138E148E158E168E178E10A211A276
:100E300012A213A214A215A216A213A614A615A6F6
:100E400016A6807E828F08950E94FB060895E09189
:100E50004101F091420190E025E130E0AC01429F78
:100E6000C001439F900D529F900D1124E80FF91F70
:100E7000928D892F86958F70813019F0917E9260C6
:100E8000928F0895E0914101F091420190E025E1B7
:100E900030E0AC01429FC001439F900D529F900DE6
:100EA0001124E80FF91F928D892F86958F7082305B
:100EB00019F0917E9460928F0895A0914101B091B4
:100EC000420190E025E130E0829FF001839FF00D28
:100ED000929FF00D1124EA0FFB1F828D86958F7073
:100EE00019F517A210A611A612A613A214A215A2F4
:100EF00016A2478F50A361A372A31C968D919D915A
:100F00000D90BC91A02D840F951FA61FB71F838F36
:100F1000948FA58FB68F928D892F86958F70813093
:100F200019F0917E9260928F0895DF92EF92FF9276
:100F30000F931F93D82E7A018B010E94FB068D2DF3
:100F4000B801A7010E945D071F910F91FF90EF90DC
:100F5000DF900895EF92FF920F931F93A0914101AC
:100F6000B091420190E025E130E0829FF001839F43
:100F7000F00D929FF00D1124EA0FFB1F828D8695D4
:100F80008F708130B1F51C968D919D910D90BC9123
:100F9000A02D238D348D458D568D281B390B4A0B82
:100FA0005B0B23A334A345A356A3E78CF0A001A1B8
:100FB00012A1D801C701821B930BA40BB50B87A309
:100FC00090A7A1A7B2A7211531054105510589F5C3
:100FD000138E148E158E168E13A214A215A216A2AD
:100FE000E7A2F0A601A712A7828D817E8860828F7A
:100FF00020C08230F1F41C968D919D910D90BC9192
:10100000A02D23A134A145A156A1820F931FA41F97
:10101000B51F838F948FA58FB68F878D90A1A1A1C7
:10102000B2A1821B930BA40BB50B87A390A7A1A71A
:10103000B2A71F910F91FF90EF90089540E0E091CB
:101040004101F091420190E025E130E0BC01629F56
:10105000C001639F900D729F900D1124E80FF91F3E
:10106000828D86958F70843009F441E0842F089535
:10107000482FE0914101F0914201282F30E085E1B5
:1010800090E0BC01269FC001279F900D369F900DD8
:101090001124E80FF91F828D86958F70843011F02E
:1010A00080E00895842F0E94FB0681E00895E0917E
:1010B0004101F091420190E025E130E0DC01A29F86
:1010C000C001A39F900DB29F900D1124E80FF91F4E
:1010D000828D80FD0FC087A190A5A1A5B2A5840F28
:1010E000951FA61FB71F83A794A7A5A7B6A7828D94
:1010F0008160828F0895E0914101F091420190E07A
:1011000025E130E0AC01429FC001439F900D529F0A
:10111000900D1124E80FF91F23A534A545A556A568
:1011200087A190A5A1A5B2A5281B390B4A0B5B0B83
:1011300057FF04C020E030E040E050E0B901CA01B0
:101140000895CF93DF93C0914101D0914201682F60
:1011500070E085E190E0689FF001699FF00D789F55
:10116000F00D1124EC0FFD1F23A534A545A556A5B0
:1011700087A190A5A1A5B2A5281B390B4A0B5B0B33
:1011800057FD07C0211531054105510511F020E03B
:1011900012C020E085E190E0AC01649FC001659F32
:1011A000900D749F900D1124C80FD91F8A8D80FF58
:1011B00021E081E02827822FDF91CF9108951F93AE
:1011C000182F0E94A108813011F080E016C0E09134
:1011D0004101F0914201212F30E085E190E0AC0126
:1011E000249FC001259F900D349F900D1124E80F7E
:1011F000F91F828D8E7F828F81E01F91089580E09C
:101200000E94AA07089580E00E94FB060895E091DD
:101210004101F091420190E02DE030E0AC01429FAD
:10122000C001439F900D529F900D1124E80FF91FAC
:1012300087A586958F700895E0914101F091420154
:1012400090E02DE030E0AC01429FC001439F900D43
:10125000529F900D1124E80FF91F6F70660F87A53C
:10126000817E862B87A70895E0914101F09142018C
:1012700090E02DE030E0AC01429FC001439F900D13
:10128000529F900D1124E80FF91FDF01D49664A935
:1012900011967C91119712968C91129713969C91AE
:1012A0000895E0914101F091420190E02DE030E09D
:1012B000DC01A29FC001A39F900DB29F900D11244D
:1012C000E80FF91F44AB55AB66AB77AB0895E091DF
:1012D0004101F091420190E02DE030E0AC01429FED
:1012E000C001439F900D529F900D1124E80FF91FEC
:1012F000DF01D09660A911967C91119712968C917E
:10130000129713969C910895E0914101F09142014A
:1013100090E02DE030E0DC01A29FC001A39F900D82
:10132000B29F900D1124E80FF91F40AB51AB62AB97
:1013300073AB0895E0914101F091420190E02DE0FE
:1013400030E0AC01429FC001439F900D529F900D31
:101350001124E80FF91FDF01D89660AD11967C913A
:10136000119712968C91129713969C910895E09183
:101370004101F091420190E02DE030E0DC01A29FBC
:10138000C001A39F900DB29F900D1124E80FF91F8B
:1013900040AF51AF62AF73AF0895E0914101F0915A
:1013A000420190E02DE030E0AC01429FC001439F3C
:1013B000900D529F900D1124E80FF91F87A58170A1
:1013C0000895E0914101F091420190E02DE030E07C
:1013D000AC01429FC001439F900D529F900D11247C
:1013E000E80FF91F87A5816087A70895E091410163
:1013F000F091420190E02DE030E0AC01429FC0014D
:10140000439F900D529F900D1124E80FF91F87A55F
:101410008E7F87A70895E0914101F091420190E00D
:101420002DE030E0AC01429FC001439F900D529FE0
:10143000900D1124E80FF91F10AA11AA12AA13AADD
:1014400014AA15AA16AA17AA87A5807E87A70895A9
:10145000E0914101F091420190E02DE030E0AC01DB
:10146000429FC001439F900D529F900D1124E80FA1
:10147000F91F10AA11AA12AA13AA14AA15AA16AA29
:1014800017AA87A5807E87A70895E0914101F09172
:10149000420190E02DE030E0AC01429FC001439F4B
:1014A000900D529F900D1124E80FF91F97A5892FD9
:1014B00086958F70813019F0917E926097A708957C
:1014C000E0914101F091420190E02DE030E0AC016B
:1014D000429FC001439F900D529F900D1124E80F31
:1014E000F91F97A5892F86958F70823019F0917E0C
:1014F000946097A70895A0914101B091420190E0B6
:101500002DE030E0829FF001839FF00D929FF00D5F
:101510001124EA0FFB1F87A586958F70D9F444AB81
:1015200055AB66AB77AB1C968D919D910D90BC91A0
:10153000A02D840F951FA61FB71F80AB91ABA2AB48
:10154000B3AB97A5892F86958F70813019F0917E66
:10155000926097A70895CF93DF93E0914101F091B6
:101560004201A82FB0E02DE030E0E901AC9F9001EE
:10157000AD9F300DBC9F300D1124E20FF31F10AA58
:1015800011AA12AA13AA14AA15AA16AA17AA97A5ED
:10159000907E97A70E947B0ADF91CF910895A0913A
:1015A0004101B091420190E02DE030E0829FF001D6
:1015B000839FF00D929FF00D1124EA0FFB1F87A56A
:1015C00086958F70813019F51C962D913D914D9126
:1015D0005C911F9780A991A9A2A9B3A9821B930B23
:1015E000A40BB50B84AB95ABA6ABB7AB0097A1052D
:1015F000B10509F510AA11AA12AA13AA14AA15AACC
:1016000016AA17AA87A5807E886087A708958230CA
:1016100091F41C962D913D914D915C911F9784A959
:1016200095A9A6A9B7A9820F931FA41FB51F80ABC8
:1016300091ABA2ABB3AB089540E0E0914101F091D2
:10164000420190E02DE030E0BC01629FC001639F49
:10165000900D729F900D1124E80FF91F87A58695B4
:101660008F70843009F441E0842F0895E0914101A6
:10167000F091420190E02DE030E0AC01429FC001CA
:10168000439F900D529F900D1124E80FF91F87A5DD
:1016900086958F70843011F080E0089510AA11AA09
:1016A00012AA13AA14AA15AA16AA17AA87A5807E99
:1016B00087A781E00895E0914101F091420190E017
:1016C0002DE030E0DC01A29FC001A39F900DB29FEE
:1016D000900D1124E80FF91F87A580FD0FC084A984
:1016E00095A9A6A9B7A9841B950BA60BB70B80AF2C
:1016F00091AFA2AFB3AF87A5816087A70895E091AE
:101700004101F091420190E02DE030E0AC01429FB8
:10171000C001439F900D529F900D1124E80FF91FB7
:1017200024A935A946A957A980AD91ADA2ADB3AD05
:10173000281B390B4A0B5B0B57FF04C020E030E03D
:1017400040E050E0B901CA010895CF93DF93C09102
:101750004101D0914201682F70E08DE090E0689FD8
:10176000F001699FF00D789FF00D1124EC0FFD1F23
:1017700024A935A946A957A980AD91ADA2ADB3ADB5
:10178000281B390B4A0B5B0B57FD07C02115310590
:101790004105510511F020E012C020E08DE090E0FD
:1017A000AC01649FC001659F900D749F900D112442
:1017B000C80FD91F8FA580FF21E081E02827822F45
:1017C000DF91CF9108951F93182F0E94A50B8130B0
:1017D00011F080E016C0E0914101F0914201212F0B
:1017E00030E08DE090E0AC01249FC001259F900D7A
:1017F000349F900D1124E80FF91F87A58E7F87A7CE
:1018000081E01F91089580E00E94CF0A0895E09141
:101810004101F091420110AA11AA12AA13AA14AA16
:1018200015AA16AA17AA87A5807E87A708950E94E1
:1018300003090E94070C08950F931F938C010E94C7
:10184000F102C8010E947C030E94170C1F910F91A6
:1018500008950E94FF080E94030C0895CF93DF9320
:10186000C0914101D091420188859985AA85BB85A7
:101870000196A11DB11D88879987AA87BB878B8197
:1018800086BD688579858A859B8529813A8140E076
:1018900050E00E945814611571058105910591F47D
:1018A0008C859D85AE85BF850196A11DB11D8C8758
:1018B0009D87AE87BF87898D882321F41886198676
:1018C0001A861B86DF91CF9108951F920F920FB653
:1018D0000F9211242F933F934F935F936F937F93B6
:1018E0008F939F93AF93BF93EF93FF930E942E0C20
:1018F000FF91EF91BF91AF919F918F917F916F91E8
:101900005F914F913F912F910F900FBE0F901F90BD
:1019100018958FE791E09093AF018093AE0184EE2C
:101920009CE09093800180937F0186E391E0909307
:1019300084018093830180E590E0909386018093F9
:1019400085018CE494E0909382018093810180E191
:1019500097E290938801809387018CE592E19093C0
:101960008A018093890184E690E090938C018093B2
:101970008B0188E691E0A0E0B0E080938D01909328
:101980008E01A0938F01B09390011092910182E09B
:101990008093920181E08093930185E0809394018C
:1019A00084E08093950180E88093960180E18093A4
:1019B0009701809398018093990110929A01109257
:1019C0009B0110929C0110929D0110929F01109218
:1019D0009E011092A1011092A0011092A3011092F9
:1019E000A2011092A9011092A8011092A4011092D4
:1019F000A5011092A6011092A7011092AB011092BE
:101A0000AA011092AD011092AC010895982F906C2C
:101A100080917C00891711F090937C0080917A006E
:101A2000806480937A0080917A0084FFFCCF80915B
:101A30007A00806180937A0020917800309179005B
:101A4000C9010895BF92CF92DF92EF92FF920F9358
:101A50001F93182FB62E00E004C0812F0E94060DA0
:101A60000F5FE091AE01F091AF0186890817A8F3EE
:101A700000E0CC24DD2476010AC0812F0E94060DEF
:101A8000A0E0B0E0C80ED91EEA1EFB1E0F5F0B15CA
:101A9000A0F30091AE011091AF012B2D30E040E09A
:101AA00050E0C701B6010E945814F801238F348F0B
:101AB000458F568F1F910F91FF90EF90DF90CF9041
:101AC000BF9008958F929F92AF92BF92CF92DF9274
:101AD000EF92FF920F931F93E091AE01F091AF014F
:101AE0008589628D0E94220D8090AE019090AF0199
:101AF000F4016281738180E090E0238D348D458D07
:101B0000568D0E9425147B018C018AE0169507955D
:101B1000F794E7948A95D1F7F4012085318540E068
:101B200050E0C801B7010E942514F40120813181E1
:101B300040E050E02E193F09400B510B0E94581411
:101B400079018A01F401A284B384CC24DD24C80184
:101B5000B701A60195010E942514AE18BF08C00A5E
:101B6000D10AA60195010E945814F401238F348FE5
:101B7000458F568FC90121A792A71F910F91FF9002
:101B8000EF90DF90CF90BF90AF909F908F9008958F
:101B90008F929F92AF92BF92CF92DF92EF92FF927D
:101BA0000F931F938090AE019090AF01F401A1A01C
:101BB000B2A0CC24DD2483A194A16AE070E00E944D
:101BC00044147B0100E010E0C601B50124E630E0DA
:101BD00040E050E00E945814C801B7010E9425144B
:101BE000F40165A376A387A390A71F910F91FF909F
:101BF000EF90DF90CF90BF90AF909F908F9008951F
:101C0000CF93DF93C091AE01D091AF016DA17EA1C2
:101C10008FA198A524E630E040E050E00E94251412
:101C20002E853F85488959890E9458143CA72BA7C7
:101C30002536310520F084E690E09CA78BA7DF9144
:101C4000CF910895E091AE01F091AF01668777875B
:101C5000808B918B0895E091AE01F091AF01978355
:101C600086830895E091AE01F091AF01878D90A138
:101C70000895E091AE01F091AF0181A192A1089584
:101C8000E091AE01F091AF0183A194A10895E0919C
:101C9000AE01F091AF0181A592A50895E091AE014A
:101CA000F091AF0185A196A10895E091AE01F09168
:101CB000AF0183A594A50895E091AE01F091AF0125
:101CC00085A596A508950F931F93E091AE01F0911D
:101CD000AF018489618D0E94220D0091AE011091A7
:101CE000AF01F8016281738180E090E0238D348D33
:101CF000458D568D0E9425142AE0969587957795F7
:101D000067952A95D1F728EE33E040E050E00E9435
:101D10002514F8012485358540E050E00E945814D0
:101D2000F801238F348F458F568FA90134A323A345
:101D300060E070E082E00E947810F80174A363A371
:101D40001F910F9108950F931F93E091AE01F091B1
:101D5000AF018389608D0E94220D0091AE01109128
:101D6000AF01F8016281738180E090E0238D348DB2
:101D7000458D568D0E9425143AE096958795779566
:101D800067953A95D1F7F8012481358140E050E01C
:101D90000E9425142AE030E040E050E00E945814F0
:101DA000F801238F348F458F568FA90132A321A3C9
:101DB00060E070E081E00E947810F80172A361A3F6
:101DC0001F910F9108950F931F93E091AE01F09131
:101DD000AF01828967890E94220D0091AE011091A6
:101DE000AF01F8016681778180E090E0238D348D2A
:101DF000458D568D0E94251424E630E040E050E0E9
:101E00000E945814F801238F348F458F568FA901F3
:101E100030A3278F60E070E080E00E947810F80126
:101E200070A3678F0091AE011091AF01F801478D4B
:101E300050A160E070E083E00E947810F80176A77E
:101E400065A71F910F9108950E94890C80EC8093E3
:101E50007C00EAE7F0E086E0808380818068808310
:101E60000E94D61080E06AE50E945E1081E06AE57B
:101E70000E945E1082E066E40E945E1083E062E3EE
:101E80000E945E10089582EB91E09093B1018093DF
:101E9000B00187E592E09093B6018093B50188E5A3
:101EA00092E09093B4018093B3011092B801109224
:101EB000B7011092B2010895219A2998E0E8F0E064
:101EC00082E8808389E18093810088E592E09093A5
:101ED000870080938600109289001092880080818C
:101EE0008F77808308959C01E091B001F091B1015A
:101EF00080818823B1F42115310599F04381548103
:101F00004217530708F49A01309389002093880000
:101F1000809180008068809380003683258381E0F3
:101F200080830895E091B001F091B101808181300A
:101F300061F4809180008F778093800010928900F7
:101F4000109288001682158210820895E091B001E7
:101F5000F091B101948383830895BC01E091B001B5
:101F6000F091B10187E592E00E9444147483638389
:101F70000895E091B001F091B10187E592E094837A
:101F800083830895E091B001F091B1018BE291E07B
:101F9000948383830895E091B001F091B10185E9C4
:101FA00090E0948383830895E091B001F091B101B2
:101FB0008AE490E0948383830895E091B001F091E6
:101FC000B101858196810895E091B001F091B10150
:101FD00083819481089582EB91E09093B101809385
:101FE000B00187E592E09093B6018093B50188E552
:101FF00092E09093B4018093B3011092B8011092D3
:10200000B7011092B2010E945C0F08950E94320E37
:102010008D57914018F00E94920F08950E94151359
:10202000DC01CB010E94730F08951092B901109248
:10203000BA011092BB011092BC011092BD01109226
:10204000BE011092BF011092C0011092C101109206
:10205000C2011092C3011092C4011092C5011092E6
:10206000C6011092C7011092C8011092C9011092C6
:10207000CA011092CB011092CC011092CD011092A6
:10208000CE011092CF011092D0011092D101109286
:10209000D2011092D3011092D4011092D501109266
:1020A000D6011092D7011092D8011092D901109246
:1020B000DA011092DB011092DC01089590E0FC013E
:1020C00023E0EE0FFF1F2A95E1F7E80FF91FE75411
:1020D000FE4F6083089590E0FC0133E0EE0FFF1F98
:1020E0003A95E1F7E80FF91FE754FE4F8081089514
:1020F0006F927F928F929F92AF92BF92CF92DF9218
:10210000EF92FF920F931F935A016B0190E04C01E5
:1021100073E0880C991C7A95E1F7880E991E89EB7B
:1021200091E0880E991EF401208130E040E050E0FB
:1021300064E6E62EF12C012D112DE21AF30A040BB0
:10214000150BC601B5010E9425145B016C0145E029
:10215000642E712C680C791CF4012581368147812D
:102160005085C801B7010E942514A60EB71EC81ECF
:10217000D91EC601B50124E630E040E050E00E94DF
:102180007A14CA01F4012583F301318342839383D6
:10219000B9011F910F91FF90EF90DF90CF90BF900A
:1021A000AF909F908F907F906F9008950E94151030
:1021B00008958FED91E09093DE018093DD01109200
:1021C000DF011092E0011092E1011092E201109201
:1021D000E3011092E4011092E5011092E6011092E1
:1021E000E7011092E8011092E9011092EA011092C1
:1021F000EB011092EC011092ED011092EE011092A1
:10220000EF011092F0011092F1011092F201109280
:10221000F3011092F4011092F5011092F601109260
:10222000F7011092F8011092F9011092FA01109240
:10223000FB011092FC011092FD011092FE0186E953
:1022400090E0A0E0B0E08093FF0190930002A093A3
:102250000102B09302021092030210920402109243
:1022600005021092060210920702109208021092C4
:10227000090210920A0210920B0210920C021092A4
:102280000D0210920E0210920F0210921002109284
:102290001102109212021092130210921402109264
:1022A0001502109216020895E091DD01F091DE0111
:1022B00060837183828393830895E091DD01F091BF
:1022C000DE0164837583868397830895E091DD0141
:1022D000F091DE0160877187828793870895EF927E
:1022E000FF920F931F93E091DD01F091DE01608377
:1022F0007183828393832483358346835783E08667
:10230000F186028713871F910F91FF90EF90089538
:10231000E091DD01F091DE016487758786879787FC
:102320000895E091DD01F091DE01608B718B828B6D
:10233000938B0895E091DD01F091DE0160A371A31C
:1023400082A393A30895E091DD01F091DE01148E44
:10235000158E168E178E0895EF92FF920F931F938E
:10236000E091DD01F091DE012485358546855785B4
:1023700080899189A289B389281B390B4A0B5B0B91
:10238000248B358B468B578B84A195A1A6A1B7A131
:1023900079018A01E81AF90A0A0B1B0BE08EF18E0B
:1023A000028F138F24A335A346A357A3E48CF58C87
:1023B000068D178DE20EF31E041F151FE48EF58E99
:1023C000068F178F80A191A1A2A1B3A18E159F05A1
:1023D000A007B1072CF4848F958FA68FB78F10C0FC
:1023E00022273327A901281B390B4A0B5B0BE21666
:1023F000F3060407150724F4248F358F468F578F73
:102400001F910F91FF90EF9008954F925F926F92FE
:102410007F928F929F92AF92BF92CF92DF92EF9274
:10242000FF920F931F930091DD011091DE01F801DF
:102430006081718182819381248935894689578998
:102440000E9425142B013C01F8016481758186816D
:102450009781248D358D468D578D0E9425144B0113
:102460005C01F8016085718582859385208D318DB1
:10247000428D538D0E9425146B017C01C301B20172
:1024800024E630E040E050E00E947A14F80120A7F2
:1024900031A742A753A7C501B40124E630E040E0CC
:1024A00050E00E947A14F80124A735A746A757A741
:1024B000C701B60124E630E040E050E00E947A1403
:1024C000F80120AB31AB42AB53AB1F910F91FF90A2
:1024D000EF90DF90CF90BF90AF909F908F907F90C4
:1024E0006F905F904F9008950E94AC110E9405126A
:1024F000E091DD01F091DE0120A531A542A553A5B3
:1025000084A595A5A6A5B7A5280F391F4A1F5B1F4F
:1025100080A991A9A2A9B3A9280F391F4A1F5B1F3F
:1025200024AB35AB46AB57AB57FF05C010AE11AE71
:1025300012AE13AE089520AF31AF42AF53AF08953E
:10254000E091DD01F091DE016081718182819381F2
:102550000895E091DD01F091DE016481758186814D
:1025600097810895E091DD01F091DE01608571852C
:10257000828593850895E091DD01F091DE01648507
:102580007585868597850895E091DD01F091DE01DE
:1025900060897189828993890895E091DD01F091C4
:1025A000DE0164897589868997890895E091DD0146
:1025B000F091DE01648D758D868D978D0895E09183
:1025C000DD01F091DE01608D718D828D938D089516
:1025D000E091DD01F091DE0160A171A182A193A1E2
:1025E0000895E091DD01F091DE0160A571A582A55D
:1025F00093A50895E091DD01F091DE0164A575A534
:1026000086A597A50895E091DD01F091DE0160A90E
:1026100071A982A993A90895E091DD01F091DE01ED
:1026200064A975A986A997A90895E091DD01F091A3
:10263000DE0160AD71AD82AD93AD08950E94D910F9
:1026400008958FE091E00E94CB0108950E945C0EF6
:10265000A0E0B0E0BC01CD010E943A028FE091E021
:102660000E94CB0108950E94320EA0E0B0E0BC01B0
:10267000CD010E943A028FE091E00E94CB010895C3
:102680000E94550EA0E0B0E0BC01CD010E943A02CC
:102690008FE091E00E94CB0108950E944E0EA0E0D1
:1026A000B0E0BC01CD010E943A028FE091E00E94AF
:1026B000CB0108950E94400EA0E0B0E0BC01CD0126
:1026C0000E943A028FE091E00E94CB0108950E949F
:1026D000390EA0E0B0E0BC01CD010E943A028FE0CB
:1026E00091E00E94CB0108950E94E40FA0E0B0E0C9
:1026F000BC01CD010E943A028FE091E00E94CB0123
:1027000008950E94DD0FA0E0B0E0BC01CD010E9461
:102710003A028FE091E00E94CB0108950E941513C8
:102720000E943A028FE091E00E94CB0108950E943E
:102730000C130E943A028FE091E00E94CB010895B1
:102740000E9403130E943A028FE091E00E94CB01A5
:1027500008950E94FA120E943A028FE091E00E94CE
:10276000CB0108950E94F1120E943A028FE091E09D
:102770000E94CB0108950E94E8120E943A028FE065
:1027800091E00E94CB0108950E94DF120E943A025C
:102790008FE091E00E94CB0108950E94D6120E9422
:1027A0003A028FE091E00E94CB0108950E94CD1281
:1027B0000E943A028FE091E00E94CB0108950E94AE
:1027C000C4120E943A028FE091E00E94CB0108956A
:1027D0000E94BB120E943A028FE091E00E94CB015E
:1027E00008950E94B2120E943A028FE091E00E9486
:1027F000CB0108950E94A9120E943A028FE091E055
:102800000E94CB0108950E94A0120E943A028FE01C
:1028100091E00E94CB0108950E946B040E943A024D
:102820008FE091E00E94CB0108950E9476040E94FF
:102830003A028FE091E00E94CB01089560E071EED2
:1028400080E090E00E94CD020895629FD001739FC6
:10285000F001829FE00DF11D649FE00DF11D929F3C
:10286000F00D839FF00D749FF00D659FF00D99277B
:10287000729FB00DE11DF91F639FB00DE11DF91F9F
:10288000BD01CF0111240895AA1BBB1B51E107C054
:10289000AA1FBB1FA617B70710F0A61BB70B881FF0
:1028A000991F5A95A9F780959095BC01CD0108957F
:1028B000A1E21A2EAA1BBB1BFD010DC0AA1FBB1F44
:1028C000EE1FFF1FA217B307E407F50720F0A21BB6
:1028D000B30BE40BF50B661F771F881F991F1A9423
:1028E00069F760957095809590959B01AC01BD014D
:1028F000CF01089597FB092E05260ED057FD04D071
:10290000D7DF0AD0001C38F45095409530952195BA
:102910003F4F4F4F5F4F0895F6F790958095709514
:0E29200061957F4F8F4F9F4F0895F894FFCF22
:10292E000D0A002000010008004000000100042CE8
:02293E00000097
:00000001FF
